:1000000010080020DD1200004D110000D912000080
:10001000D9120000D9120000D9120000D912000034
:10002000000000000000000000000000D9120000E5
:10003000D912000000000000D9120000D9120000FF
:10004000F90700006D070000A5080000E5080000A2
:1000500000000000000000000000000000000000A0
:100060000000000000000000000000000000000090
:100070000000000000000000000000000000000080
:100080000000000000000000000000000000000070
:100090000000000000000000000000000000000060
:1000A0000000000000000000000000000000000050
:1000B0000000000000000000000000000000000040
:1000C0000000000000000000000000000000000030
:1000D0000000000000000000000000000000000020
:1000E0000000000000000000000000000000000010
:1000F0000000000000000000000000000000000000
:1001000000000000000000000000000000000000EF
:1001100000000000000000000000000000000000DF
:1001200000000000000000000000000000000000CF
:1001300000000000000000000000000000000000BF
:1001400000000000000000000000000000000000AF
:10015000000000000000000000000000000000009F
:10016000000000000000000000000000000000008F
:10017000000000000000000000000000000000007F
:10018000000000000000000000000000000000006F
:10019000000000000000000000000000000000005F
:1001A000000000000000000000000000000000004F
:1001B000000000000000000000000000000000003F
:1001C000FFFFFFFFFFFFFFFFFFFFFFFFFFFFFFFF3F
:1001D000FFFFFFFFFFFFFFFFFFFFFFFFFFFFFFFF2F
:1001E000FFFFFFFFFFFFFFFFFFFFFFFFFFFFFFFF1F
:1001F000FFFFFFFFFFFFFFFFFFFFFFFFFFFFFFFF0F
:1002000010B5054C237833B9044B13B1044800E012
:1002100000BF0123237010BDD801002000000000A2
:100220002016000008B5034B1BB10349034800E04A
:1002300000BF08BD00000000DC0100202016000007
:10024000F8B51649164800F0F1FC1649164800F0BA
:10025000B7F80024154F164E134D1649384600F0D6
:1002600001FE384600F094FD31461022284600F089
:1002700035F831462846102200F04AF822464FF45D
:10028000A061074800F098FBC4F101044FF47A71B3
:100290004FF4FA70E4B200F025FFDEE7AC14000082
:1002A000F4010020781400000C0200200402002059
:1002B000800100206C140000022800D07047024B1F
:1002C0000248596800F0B2BC3C140000F401002060
:1002D00008B5FFF7B5FF002008BD00BFF8B5C3693A
:1002E0001546DA6804460E466AB18378916803F0D1
:1002F0000303013B25FA03F310688F68324600219F
:100300009BB2B84710B90020C4E90565F8BD00BF2D
:10031000F8B504460D46036A8078997800F0030C1E
:1003200001F07B019970E169A2EB0C020E6905EB0B
:100330000C012261E16076B16AB10CF1FF3C22FA56
:100340000CF293B20022B7683068BE682261B047F1
:1003500060B9236AA0789A7800F0030042F0800226
:1003600002289A7003D000202A78DA70F8BD2A8813
:10037000002042F47E42DA81F8BD00BFF0B5846A05
:1003800085B005460F4694466E46B4B194E80F001A
:1003900086E80F00EB6920461B7884F804C02360D0
:1003A000EB6AC4E902736B6A9847AC6A1CB196E8C1
:1003B0000F0084E80F0005B0F0BD3446EAE700BF47
:1003C00000222DE9F84F01260D460B78027003F547
:1003D000800303F58C531B0203624B69C1614362C6
:1003E0008378896966F301038262C16283706B78E6
:1003F000044623B90222837862F3010383704FF02D
:10040000010C95F90B105A4B4A0901F01F062032D6
:100410000CFA06F6A87A43F82260BFF34F8FBFF3B9
:100420006F8F544A01F1C00652F8267000016FF335
:10043000104742F82670504E5F18C0B287F800038C
:1004400046F8214095F9051028794F0901F01F0E53
:1004500020370CFA0EFE43F827E0BFF34F8FBFF3AF
:100460006F8F01F1C00752F827E000016FF3104EC3
:1004700042F827E0C0B25F1887F8000346F8214031
:1004800095F90710A8794F0901F01F0E20370CFAD3
:100490000EFE43F827E0BFF34F8FBFF36F8F01F1DC
:1004A000C00752F827E000016FF3104E42F827E032
:1004B000C0B25F1887F8000346F8214095F909108B
:1004C000287A4F0901F01F0E20370CFA0EFE43F870
:1004D00027E0BFF34F8FBFF36F8F01F1C00752F8D2
:1004E00027E000010B44C0B26FF3104E42F827E042
:1004F00083F80003EB6846F82140B3B14FF40026BF
:100500005968206A0A68471D1660E6695760767860
:100510002EB910305060D0786CF30510D0709A6806
:100520001868126890470646F8B92B6933B34FF044
:10053000006059680A681060D4E90760C71C9760BA
:10054000767836B901260E309060D07866F30510C3
:10055000D0709A68186812689047064670B1EB68C8
:100560001BB19A681868136A98473046BDE8F88F3F
:1005700000E100E00060004084020020EFF3108002
:10058000012383F310884FF00041754B2E785A6891
:10059000F14022EA01025A605B6880F31088002271
:1005A00040F21921236AE8699A701A715A729A7294
:1005B000DA725A832A7821FA02F2D60744BF40221F
:1005C000DA74062240F219211A772A786E78D1401F
:1005D000AF78EA78CD0748BF4FF478414FEAC202BE
:1005E00048BF9982032E42EA071200F0AB80002E2A
:1005F00014BFF221E221D2B21A709971027B082A4B
:100600000EBF0A22520002F002025A734278817829
:10061000D201490101F02001D2B20A43002119722E
:1006200090F800E0AEF10201012940F28F80D2B2D1
:10063000DA714268917855785970197865F301013B
:100640001970D17812789974D97902F05C0201F0AE
:10065000A3010A43DA7100224FF00109C4E9032221
:10066000C4E90522D4F81CA016469AF905703D4944
:1006700007F1C00C7D0951F82CB0AD0007F01F0741
:1006800005F1604509FA07F705F5614562F3104B7E
:1006900041F82CB0C5F880712F609AF90B70DFF823
:1006A000C88007F1C00C7D0951F82CB0AD0007F0EF
:1006B0001F0705F1604509FA07F705F5614562F383
:1006C000104B41F82CB0C5F880712F609AF907C023
:1006D0000EF0030E0CF1C00B4FEA5C150CF01F0C72
:1006E00009FA0CF7AD0051F82BC005F1604505F58E
:1006F000614562F3104C41F82BC0C5F880712F6042
:100700009AF909504EF0700E05F1C00751F827C054
:1007100062F3104C6A0941F827C09200408905F045
:100720001F0102F1604209FA01F102F56142C2F8CB
:100730008011116083F802E02081C4F80480304603
:10074000BDE8F88FF22142F0400254E7FF21BEF1EC
:10075000020F08BF42F01002D2B25970DA717AE784
:1007600000400840006000405549435330B4EFF367
:100770000383103B5BB21E4A03F1C00152F8210013
:100780001C4C6FF3104042F8210054F82300C36959
:100790001B691BB103691BB130BC704703697BB98E
:1007A000D0E908240021937803F07F0343F0040389
:1007B0009370C160002CEFD030BC8022FFF7DEBD0B
:1007C000827802F003010229C1680BD0046A91F813
:1007D00000C084F803C002F003029B1A0A44C0E977
:1007E0000323D8E70C88056A44F47E44EC81F2E7E1
:1007F000006000408402002010B582B0EFF3038354
:10080000103B5BB2254A03F1C00152F82100244C91
:100810006FF3104042F8210054F82340E369DB688D
:10082000002B38D0A369ABB9A27802F003010229EA
:10083000216A0BBF098A4979C1F30801C9B2019144
:10084000A3B9636A2BB30422204602B0BDE810406E
:10085000FFF794BD0021636AC4E90511CBB1012201
:10086000204602B0BDE81040FFF788BD02F0030249
:1008700001A9606900F098FDD4E90521A37803F08F
:1008800003031A44C91AC4E9052111B9636A002B8C
:10089000E5D102B010BDA369C6E700BF006000400B
:1008A0008402002010B5EFF303840C4B103C64B2BB
:1008B00053F82400D0E90821937803F07B03937068
:1008C00019B102220021FFF759FD054BC03453F83E
:1008D00024206FF3104243F8242010BD840200202E
:1008E0000060004010B5EFF30384194B103C64B274
:1008F00053F82400837803F00303022B036A0CBF30
:10090000198A597993F804C00CBFC1F30801C9B220
:100910001CF0100F0CF0380206D093F81CC01CF02D
:10092000010F08BF42F0400293F804C00CF0C70C5E
:1009300083F804C0436A0BB1FFF720FD054BC034B8
:1009400053F824206FF3104243F8242010BD00BF59
:1009500084020020006000400022034610461A6016
:10096000704700BF0B0A10B41B01064C53FA81F10B
:1009700054F821300020C3F340035DF8044B13709A
:10098000704700BF00080840090A490101F1804191
:1009900001F500214B68002013807047090A4901C6
:1009A00023EA020C01F180411A4001F5002142EADC
:1009B0000C4200208A6070470123C8B283404AB9C4
:1009C0001A040B0A5B0103F1804303F500230020A6
:1009D0009A6070479AB2F4E7090A490101F180412F
:1009E00001F5002110B40C6802EA030C4CEA040C77
:1009F00062EA030202EA0C0200205DF8044B0A607E
:100A0000704700BF090A490101F1804101F5002149
:100A10004B680020C3F30F4313807047012310B4C9
:100A20004FEA112C4FEA4C1C0CF1804C0CF5002CB9
:100A3000DCF80440C9B203FA01F18BB201EA1441B7
:100A4000C91AB1FA81F1490900205DF8044B11700F
:100A5000704700BF090A490123EA020C01F18041F5
:100A60001A4001F5002142EA0C420020CA6070479A
:100A700006207047012A14D04FF480300B0A5B0126
:100A800003F1804303F5002310B4CAB2DC6800FA16
:100A900002F22243120C120400205DF8044BDA60CB
:100AA00070470B0A5B0103F1804303F50023D8680C
:100AB000C9B28A40024392B20020DA60704700BF98
:100AC00038B50488002C4CD00021436840F2024520
:100AD000043303EBC40040F2034C40F2044E0C46D6
:100AE0000FE062452FD153F8042C02F0B852B2F156
:100AF000807F14BF41F0020144F0020408338342B6
:100B000010D01A88AA42ECD153F8042C083302F012
:100B1000B852B2F1807F14BF41F0010144F00104EA
:100B20008342EED1C943CDB2012000F0ABFB0E4BA6
:100B3000012093F8BB2414432C4083F8BB44BDE848
:100B4000384000F06FBB7245D8D153F8042C02F046
:100B5000B852B2F1807F0CBF44F0040441F00401AC
:100B6000CCE7FF25E0E700BF00E00140F8B5044610
:100B7000FFF7A6FFEFF31082012383F31088284EBE
:100B800033681BB92749CB704023CB7033680133DE
:100B9000336082F3108823887BB3626803F1FF3EE1
:100BA0001FFA8EFE02F108011F4C01EBCE0E08E089
:100BB000D2B21B0113448E450A4644F823001CD0D0
:100BC00008311068928810F4803F4FEA1223EFD06A
:100BD000130AD2B202EB031C54F82C701B0113440D
:100BE00020F480356FF310478E4544F82C700A4688
:100BF00044F82C5044F82300E2D1EFF31082012393
:100C000083F31088336813B13368013B3360336872
:100C10001BB980200349CB70C87082F31088F8BDDF
:100C200080020020000D08400008084008B5034B72
:100C300003600846FFF79AFF002008BD54524F504A
:100C400008B50846FFF792FF002008BD70B50126E1
:100C500084B002AB68460C4615460193ADF80060BF
:100C6000ADF80C100292FFF72BFFEFF3108286F322
:100C700010881D490B681BB940261C48C370C670FC
:100C80000B6801330B6082F31088EA034FEA1423E8
:100C9000E4B219D41B01164A234442F82350EFF35F
:100CA0001082012383F310880B6813B10B68013B9A
:100CB0000B600B681BB980200C49CB70C87082F3A5
:100CC0001088002004B070BD094A04EB031052F8EC
:100CD00020601B016FF3104642F8206025F4803637
:100CE00042F82060D7E700BF80020020000D0840D6
:100CF0000008084030B490F90400204D82B0019102
:100D000000F1C00C009255F82C201D4C6FF31862B6
:100D100045F82C2055F82C10C1F3080141F400418E
:100D2000E28992B28A42FBD008222274019A1AB355
:100D3000144A019C52F820104C60009919B152F8E5
:100D40002010009C8C6052F82010CA7802F0C0027B
:100D5000802A0FD002B9CB8118210020084B074A06
:100D6000197452F82C3043F0807342F82C3002B0E2
:100D700030BC70478B81EFE7024ADEE7006000403D
:100D800000540040000000200620704706207047F5
:100D9000034693F904300549C03351F8232000205D
:100DA00042F0807241F82320704700BF006000408D
:100DB000034693F90430054AC03352F8231000204B
:100DC0006FF3186142F82310704700BF00600040C5
:100DD00010B40024154B90F9042053F82220D37846
:100DE000C1E9004413F0C0030BD04FF48074D089E4
:100DF000802BC0B2C1E902400DD000205DF8044B49
:100E000070474FF48030D3895DF8044B9BB2C1E941
:100E10000203002070474FF4803093895DF8044B43
:100E20009BB2C1E900030020704700BF0000002012
:100E30000346002270B493F90410084C01F1C00C71
:100E400054F82C50064E6FF3186544F82C50104699
:100E500046F821201A6070BC704700BF0060004057
:100E600000000020274AF8B5137804460D464BB31E
:100E70006B6893F900C0BCF1000F41DB224E56F8BD
:100E80002C300BB10820F8BD84F804C02D682B4627
:100E9000DA78194612F0C00F04D0DA89D2B242EAE9
:100EA0000222DA818A78103312F0C002F0D11046A3
:100EB00008221821154B1A74154A46F82C5019703F
:100EC0002260F8BD01261670EFF3108086F31088BB
:100ED000104A116821F480011160126880F31088B3
:100EE000094F19464FF4C072384600F06AFA074BB2
:100EF0005F611E736B6893F900C0BCF1000FBDDA2F
:100F00000B20F8BD3C0200200000002000540040EF
:100F1000004354440040084010B590F904E01A4BD7
:100F20000EF1C00C53F82C20184C6FF3186243F8E4
:100F30002C2053F82C20C2F3080242F40042E3892B
:100F40009BB29342FBD00B46DA78184612F0C00FE2
:100F500004D0DA89D2B242EA0222DA8180781033F0
:100F600010F0C000F0D108221824084B1A74084A67
:100F700042F82E10044A1C7052F82C3043F0807353
:100F800042F82C3010BD00BF00600040005400400B
:100F900000000020064B074993F826001A6A51F812
:100FA0002030C2F302620449D3400B60704700BF97
:100FB00000E00140BC0100200C040020F8B54AF21A
:100FC000035001233849394AA1F8FE03A2F804313D
:100FD000B2F804319BB2002BFAD101214FF4004545
:100FE0004FF0090C324CDFF8E4E0324EC4F804E074
:100FF000DFF8DCE02C48C4F80CE02F4FA2F8001119
:101000002E4AB16031606261276090F82620A560A9
:101010002561056A54F82220C5F30265EA40284D8F
:101020002A6080F8133480F8A2C090F88034A3B30B
:1010300000231D4981F8813481F8803481F83230F1
:1010400091F83C301A07FBD543F202100023164AF0
:10105000088581F82A3092F83C309B06FBD50120A8
:101060000521124BF12683F81C01164B82F826103D
:10107000136292F82630106A54F82310C0F302600D
:10108000C14000242960F0204FF425410E4B1E730F
:101090001C721873A2F8FE13F8BD80F8801440F299
:1010A000C44000F01FF8C3E700E0014000C0014069
:1010B000BC01002000700040002D310100C2EB0B8C
:1010C0000C040020211202210020004000127A00AE
:1010D00000366E01704700BFA0F101000028FBD16F
:1010E000704700BF10B54FF47A72164C164B246847
:1010F0004FF0000EB3FBF4FC4FF0FF3300FB01F1A7
:10110000A1FB020483427EEB040407D3B0FBFCF096
:10111000800880B1BDE81040FFF7DEBF4FEA8C0CBD
:10112000B1FBFCF1A1FB02128B427EEB020203D366
:1011300008460028EED110BD1846BDE81040FFF764
:10114000CBBF00BF0C04002000CA9A3B70B500243E
:101150000A4B0B4EB3F84051ADB225FA04F3DB074E
:10116000E0B203D556F8243003B198470134102C6F
:10117000F3D1024BA3F8305170BD00BF00600040B6
:101180004002002030B56FF0FF0585B0032000F06D
:1011900079F84FF0FF311F4C1F4822468564002329
:1011A0000125CDE90111039104F1C00E32F8020FBF
:1011B000590960B104A800EB810151F80C0C03F04F
:1011C0001F0C05FA0CFC20EA0C0041F80C0C7245CF
:1011D00003F10103EAD10199104B0F4A0320116773
:1011E000C3F8801202995167C3F88412039991677A
:1011F000C3F8881200F016F80023094803F1C00272
:1012000034F8021F0133602B40F82210F6D105B0EC
:1012100030BD00BFFA1400000080004000E100E093
:1012200000600040EFF31081012383F31088124B1C
:1012300033F8102092B22AB133F81020013A92B25A
:1012400023F8102033F810309BB293B90B4A10B436
:10125000B2F8FE330A4C9BB234F8100043F4254335
:1012600023EA0003A2F8FE3381F310885DF8044BF3
:10127000704781F3108870470404002000E00140AB
:101280001816000030B4EFF31081012383F31088A7
:101290000E4A32F810309BB26BB90D4C0D4DB4F8BC
:1012A000FE3335F810C09BB243EA0C0343F42543E8
:1012B0009BB2A4F8FE3332F8103001339BB222F80F
:1012C000103081F3108830BC704700BF0404002048
:1012D00000E001401816000000BE704708B500F09D
:1012E00003F8FEF7F5FFFEE74FF47001234B244AA5
:1012F00070B50020C3F888109A60FEF7DDFFFFF795
:101300005DFE0120FEF7D8FF1E4B83F30A881E48BE
:101310001E4A0021121A00F054F81D481D4A1E49A9
:10132000121A00F041F81D4D1D4B5B1B002B07DD11
:1013300000249E1055F8043B01349847A642F9DC7E
:10134000FFF728FE0320FFF79DFF00234FF6FF70F5
:10135000144903F108020133092B21F81200F8D1D6
:101360000320FFF75FFF0220FEF7A6FFFFF70AFF4B
:10137000BDE870400020FFF7ADBE00BF00ED00E00B
:101380000000000010040020D801002010040020FC
:1013900080010020BC01002024160000B4010020C0
:1013A000B8010020000D08400A44431E914200D1BC
:1013B000704710B511F8014B914203F8014FF9D174
:1013C00010BD02440346934200D1704703F8011B4D
:1013D000F9E7FFFF4275696C7420776974682052E1
:1013E000656E6573617320416476616E6365642028
:1013F000466C657869626C6520536F6674776172BC
:1014000065205061636B6167652076657273696FF3
:101410006E20332E382E3000332E382E3000000050
:1014200000000803F8B500BFF8BC08BC9E46704732
:10143000F8B500BFF8BC08BC9E467047F401002018
:10144000AC140000BC150000FC0100205414000086
:10145000F4150000900100205C14000001FFFFFF64
:10146000040200206C140000F4150000A00100200C
:101470007414000000FFFFFF0302000002000C01D3
:101480000C020C036014000048140000000000006F
:10149000000000009814000000010000B0010020CE
:1014A0000F00FFFF00000000FFFF00000900000028
:1014B000B41400000400000001010000040000005A
:1014C000020100000000010008010000000001000E
:1014D00009010000000001000A01000000000100F5
:1014E00000030000000001050804000000000105E1
:1014F00009040000040000000005000092019301AF
:1015000094019501000000000000000000000000B0
:1015100000000000000000000000000000000000CB
:1015200000000000000000000000000000000000BB
:1015300000000000000000000000000000000000AB
:10154000000000000000000000000000000000009B
:10155000000000000000000000000000000000008B
:10156000000000000000000000000000000000007B
:10157000000000000000000000000000000000006B
:10158000000000000000000000000000000000005B
:10159000000000000000000000000000000000004B
:1015A000000000000000000000000000000000003B
:1015B0000000000000000000000000002D0C0000F2
:1015C00059090000410C00004D0C00001D0A0000EC
:1015D000750A0000710A000065090000B9090000E1
:1015E000D9090000050A0000550A00008909000019
:1015F0009D090000650E0000190F0000F50C0000A9
:10160000910D0000B10D0000890D00008D0D00004E
:10161000D10D0000310E0000010002000800100092
:0416200000000000C6
:101624003131000000000000000000000000000054
:10163400000010080000000000000000000000008E
:10164400000008000000000000000000000000008E
:0C1654004001A10025020000010200007E
:020000040100F9
:10A10000FFFFFFFFFFFFFFFFFFFFFFFFFFFFFFFF5F
:10A11000FFFFFFFFFFFFFFFFFFFFFFFFFFFFFFFF4F
:10A12000FFFFFFFFFFFFFFFFFFFFFFFFFFFFFFFF3F
:08A13000FFFFFFFFFFFFFFFF2F
:10A20000FFFDFFFFFFFFFFFFFFFFFFFFFFFFFFFF60
:10A21000FFFFFFFFFFFFFFFFFFFFFFFFFFFFFFFF4E
:10A22000FFFFFFFFFFFFFFFFFFFFFFFFFFFFFFFF3E
:10A23000FFFFFFFFFFFFFFFFFFFFFFFFFFFFFFFF2E
:10A24000FFFFFFFFFFFFFFFFFFFFFFFFFFFFFFFF1E
:10A25000FFFFFFFFFFFFFFFFFFFFFFFFFFFFFFFF0E
:10A26000FFFFFFFFFFFFFFFFFFFFFFFFFFFFFFFFFE
:10A27000FFFFFFFFFFFFFFFFFFFFFFFFFFFFFFFFEE
:10A28000F8F8FFFFFFFFFFFFFFFFFFFFFFFFFFFFEC
:10A29000FFFFFFFFFFFFFFFFFFFFFFFFFFFFFFFFCE
:10A2A000FFFFFFFFFFFFFFFFFFFFFFFFFFFFFFFFBE
:10A2B000FFFFFFFFFFFFFFFFFFFFFFFFFFFFFFFFAE
:0CA2C000FFFFFFFFFFFFFFFFFFFFFFFF9E
:04000003000012DD0A
:00000001FF
